S00F000030372D756172742E73726563C5
S11300000C9434000C9451000C9451000C94510045
S11300100C9451000C9451000C9451000C94510018
S11300200C9451000C9451000C9451000C94510008
S11300300C9451000C9447010C9451000C94510001
S11300400C9451000C9451000C9422020C94500214
S11300500C9451000C945C010C9451000C945100CC
S11300600C9451000C94510011241FBECFEFD8E022
S1130070DEBFCDBF11E0A0E0B1E0ECEDF5E002C0E1
S113008005900D92A633B107D9F721E0A6E3B1E0BC
S113009001C01D92AB37B207E1F70E94F6000C9441
S11300A0EC020C940000299A85E08A95F1F700008F
S11300B029980895CF93C82F662311F0289A01C078
S11300C02898549A559A569A579A5F985E985D98CC
S11300D05C98CC230CF45F9AC6FD5E9AC5FD5D9ACC
S11300E0C4FD5C9A0E9453005F985E985D985C988A
S11300F0C3FD5F9AC2FD5E9AC1FD5D9AC0FD5C9A24
S11301000E9453005C9A5D9A5E9A5F9A87EB9BE02B
S11301100197F1F700C00000CF91089560E00E94BC
S11301205A000895611104C080580E948E000895F9
S113013080540E948E00089581E00E948E000895EC
S113014061E00E945A000895CF93DF93EC01219659
S1130150FC018081882329F00E94A00089918111EB
S1130160FBCFDF91CF910895CF93C82F209A559A52
S1130170219A549A559A569A579A8FEF99EF019764
S1130180F1F700C000005D9A5C9A0E9453008FE171
S11301909EE40197F1F700C000000E9453008FEF26
S11301A090E00197F1F700C000000E9453008FEF28
S11301B090E00197F1F700C000005C980E945300A2
S11301C08FEF90E00197F1F700C0000088E20E94F1
S11301D08E0088E00E948E000E949C0086E00E94AF
S11301E08E008C2F0E948E00CF9108958CE00E9487
S11301F0B40060E081E00E94920080E091E00E94FF
S1130200A40061E083E00E94920087E091E00E94F4
S1130210A40060E088E00E9492008CE091E00E94DB
S1130220A40060E08DE00E9492008EE091E00E94C4
S1130230A40061E088E00E94920080E191E00E94C5
S1130240A400ECE7F0E080818064808380818E7F6D
S11302508083EAE7F0E08081806880838081886021
S11302608083808187608083E1E8F0E080818B7FF8
S11302708083808183608083EFE6F0E08081816009
S1130280808387E690E00E947A027894FFCF1F92E1
S11302900F920FB60F9211248F93EF93FF93EAE717
S11302A0F0E0808180648083FF91EF918F910F90C3
S11302B00FBE0F901F9018951F920F920FB60F92BA
S11302C011240F931F932F933F934F935F936F9337
S11302D07F938F939F93AF93BF93EF93FF93CF93AA
S11302E0DF9300D000D0CDB7DEB780E390E39A83EC
S11302F089839C838B83009178001091790060E05E
S113030088E00E94920082E191E00E94A4004AE009
S1130310BE016F5F7F4FC8010E94B70260E088E0B2
S11303200E949200CE0101960E94A400CE01019683
S11303300E94A80285E191E00E94A80260E08DE09D
S11303400E94920082E191E00E94A40040E1BE017B
S11303506F5F7F4FC8010E94B70260E08DE00E948A
S11303609200CE0101960E94A40061E088E00E9400
S1130370920082E191E00E94A40061E08CE00E947E
S1130380920082E191E00E94A40061E088E00E9472
S113039092004AE0BE016F5F7F4FC8010E94B7021E
S11303A0093E23E0120720F087E191E00E94A400B7
S11303B0C801895592408F38914020F48CE191E036
S11303C00E94A400C8018F5591408336910520F402
S11303D083E291E00E94A400C801895C91098534FC
S11303E0910520F488E291E00E94A400C8010697D8
S11303F08237910520F48DE291E00E94A400012B44
S113040021F480E391E00E94A400CE0101960E94B1
S1130410A4000F900F900F900F90DF91CF91FF9158
S1130420EF91BF91AF919F918F917F916F915F9168
S11304304F913F912F911F910F910F900FBE0F90ED
S11304401F9018951F920F920FB60F9211242F939D
S11304508F939F93EF93FF938091C0002091C600E8
S11304608C71E0913801EF5FEF7190913701E917DA
S113047039F0E0933801F0E0E55CFE4F208301C0E1
S113048082E090913601892B80933601FF91EF91A0
S11304909F918F912F910F900FBE0F901F901895E1
S11304A01F920F920FB60F9211248F939F93EF9385
S11304B0FF9390913A0180913901981769F0E09186
S11304C03901EF5FEF71E0933901F0E0E55AFE4F37
S11304D080818093C60005C0E1ECF0E080818F7DCF
S11304E08083FF91EF919F918F910F900FBE0F909A
S11304F01F90189510923A01109239011092380108
S11305001092370199231CF422E02093C0009078C4
S11305109093C5008093C40088E98093C10086E06D
S11305208093C200089520913A012F5F2F7190911A
S113053039012917E1F3E22FF0E0E55AFE4F8083F9
S113054020933A01E1ECF0E0808180628083089599
S1130550CF93DF93EC018881882331F021960E94A8
S1130560930289918111FBCFDF91CF910895BB272D
S11305704A3031F4992322F4BDE2909581959F4F3E
S11305800C94C302BB27FB015527AA27880F991F88
S1130590AA1FA41710F0A41B83955051B9F7A05DAE
S11305A0AA3308F0A95DA193009779F7B111B1932B
S11305B01192CB010C94DC02DC01FC01672F7191D8
S11305C07723E1F7329704C07C916D937083629135
S10F05D0AE17BF07C8F30895F894FFCFDE
S11305DC76616C75653A006B65793A00610062006E
S11305EC630020202020004E4F4E450053454C45BF
S11305FC4354004C45465400444F574E005550004C
S109060C52494748540066
S9030000FC
