S00E000030362D6C63642E7372656350
S11300000C9434000C9451000C9451000C94510045
S11300100C9451000C9451000C9451000C94510018
S11300200C9451000C9429010C9451000C9451002F
S11300300C9451000C9451000C9451000C945100F8
S11300400C9451000C9451000C9451000C945100E8
S11300500C9451000C9451000C9451000C945100D8
S11300600C9451000C94510011241FBECFEFD8E022
S1130070DEBFCDBF11E0A0E0B1E0E8ECF3E002C0E8
S113008005900D92A231B107D9F721E0A2E1B1E0C8
S113009001C01D92A531B207E1F70E94FA000C9449
S11300A0E2010C940000299A85E08A95F1F700009A
S11300B029980895CF93C82F662311F0289A01C078
S11300C02898549A559A569A579A5F985E985D98CC
S11300D05C98CC230CF45F9AC6FD5E9AC5FD5D9ACC
S11300E0C4FD5C9A0E9453005F985E985D985C988A
S11300F0C3FD5F9AC2FD5E9AC1FD5D9AC0FD5C9A24
S11301000E9453005C9A5D9A5E9A5F9A87EB9BE02B
S11301100197F1F700C00000CF91089560E00E94BC
S11301205A00089561E00E945A000895611104C0C4
S113013080580E948E00089580540E948E00089575
S113014081E00E948E00089561E00E945A000895A3
S1130150CF93DF93EC012196FC018081882329F061
S11301600E94A40089918111FBCFDF91CF91089562
S1130170CF93C82F209A559A219A549A559A569AF1
S1130180579A8FEF99EF0197F1F700C000005D9A3D
S11301905C9A0E9453008FE19EE40197F1F700C03E
S11301A000000E9453008FEF90E00197F1F700C028
S11301B000000E9453008FEF90E00197F1F700C018
S11301C000005C980E9453008FEF90E00197F1F7D4
S11301D000C0000088E20E948E0088E00E948E0029
S11301E00E94A00086E00E948E008C2F0E948E0048
S11301F0CF9108958EE00E94B80061E080E00E94F3
S113020096008CE00E94B80080E40E948E00C0E05A
S1130210D1E000E111E089910E949200C017D1075A
S1130220D1F780E80E948E0080E00E94A40081E063
S11302300E94A400E1EBF0E080818D7F80838081C7
S113024087608083E0E7F0E0808181608083789438
S1130250FFCF1F920F920FB60F9211242F933F934B
S11302604F935F936F937F938F939F93AF93BF93BA
S1130270EF93FF93CF93DF9300D0CDB7DEB780E247
S113028090E29A838983809114018F5F863018F4F9
S1130290809314014DC010921401809113018F5F5B
S11302A08A3018F4809313010CC0109213018091CA
S11302B012018F5F8C3318F48093120102C01092E4
S11302C0120160E081E00E94960060E086E00E94F6
S11302D0960080E191E00E94A800809113014AE019
S11302E0BE016F5F7F4F90E00E94AD0160E087E048
S11302F00E949600CE0101960E94A80080911201EE
S11303004AE0BE016F5F7F4F90E00E94AD01809193
S113031012018A3028F460E085E00E94960004C04F
S113032060E084E00E949600CE0101960E94A8003D
S11303300F900F90DF91CF91FF91EF91BF91AF910B
S11303409F918F917F916F915F914F913F912F91E9
S11303500F900FBE0F901F901895BB274A3031F4B1
S1130360992322F4BDE2909581959F4F0C94B90195
S1130370BB27FB015527AA27880F991FAA1FA4177B
S113038010F0A41B83955051B9F7A05DAA3308F06F
S1130390A95DA193009779F7B111B1931192CB01A3
S11303A00C94D201DC01FC01672F71917723E1F7F2
S11303B0329704C07C916D9370836291AE17BF072E
S10B03C0C8F30895F894FFCF7F
S11303C8000E1F1F1F0F0301000E1F1F1F1E1810F2
S10503D82E00F1
S9030000FC
