:100000000C9434000C943E000C943E000C943E0082
:100010000C943E000C943E000C943E000C943E0068
:100020000C943E000C943E000C943E000C943E0058
:100030000C943E000C943E000C943E000C943E0048
:100040000C943E000C943E000C943E000C943E0038
:100050000C943E000C943E000C943E000C943E0028
:100060000C943E000C943E0011241FBECFEFD8E04C
:10007000DEBFCDBF0E9440000C94FD010C94000037
:10008000259A2D9880E22FEF3BE49DE121503040EE
:100090009040E1F700C0000095B1982795B92FEF87
:1000A00033EC99E0215030409040E1F700C000006F
:1000B00095B1982795B92FEF33EC99E02150304056
:1000C0009040E1F700C0000095B1982795B92FEF57
:1000D00033EC99E0215030409040E1F700C000003F
:1000E00095B1982795B92FEF33EC99E02150304026
:1000F0009040E1F700C0000095B1982795B92FEF27
:1001000033EC99E0215030409040E1F700C000000E
:1001100095B1982795B92FEF33EC99E021503040F5
:100120009040E1F700C0000095B1982795B92FEFF6
:1001300033EC99E0215030409040E1F700C00000DE
:1001400095B1982795B92FEF3BE49DE121503040C0
:100150009040E1F700C0000095B1982795B92FEFC6
:1001600033EC99E0215030409040E1F700C00000AE
:1001700095B1982795B92FEF33EC99E02150304095
:100180009040E1F700C0000095B1982795B92FEF96
:1001900033EC99E0215030409040E1F700C000007E
:1001A00095B1982795B92FEF3BE49DE12150304060
:1001B0009040E1F700C0000095B1982795B92FEF66
:1001C0003BE49DE1215030409040E1F700C0000049
:1001D00095B1982795B92FEF33EC99E02150304035
:1001E0009040E1F700C0000095B1982795B92FEF36
:1001F00033EC99E0215030409040E1F700C000001E
:1002000095B1982795B92FEF33EC99E02150304004
:100210009040E1F700C0000095B1982795B92FEF05
:100220003BE49DE1215030409040E1F700C00000E8
:1002300095B1982795B92FEF33EC99E021503040D4
:100240009040E1F700C0000095B1982795B92FEFD5
:1002500033EC99E0215030409040E1F700C00000BD
:1002600095B1982795B92FEF33EC99E021503040A4
:100270009040E1F700C0000095B1982795B92FEFA5
:100280003BE49DE1215030409040E1F700C0000088
:1002900095B1982795B92FEF33EC99E02150304074
:1002A0009040E1F700C0000095B1982795B92FEF75
:1002B00033EC99E0215030409040E1F700C000005D
:1002C00095B1982795B92FEF3BE49DE1215030403F
:1002D0009040E1F700C0000095B1982795B92FEF45
:1002E0003BE49DE1215030409040E1F700C0000028
:1002F00095B1982795B92FEF33EC99E02150304014
:100300009040E1F700C0000095B1982795B92FEF14
:1003100033EC99E0215030409040E1F700C00000FC
:1003200095B1982795B92FEF33EC99E021503040E3
:100330009040E1F700C0000095B1982795B92FEFE4
:100340003BE49DE1215030409040E1F700C00000C7
:1003500095B1982795B92FEF33EC99E021503040B3
:100360009040E1F700C0000095B1982795B92FEFB4
:100370003BE49DE1215030409040E1F700C0000097
:1003800095B1982795B92FEF33EC99E02150304083
:100390009040E1F700C0000095B1982795B92FEF84
:1003A00033EC99E0215030409040E1F700C000006C
:1003B00095B1982795B92FEF33EC99E02150304053
:1003C0009040E1F700C0000095B1982795B92FEF54
:1003D0003BE49DE1215030409040E1F700C0000037
:1003E00095B1982795B92FEF33EC99E02150304023
:0E03F0009040E1F700C0000046CEF894FFCF29
:00000001FF
