:100000000C9434000C943E000C943E000C943E0082
:100010000C943E000C943E000C943E000C943E0068
:100020000C943E000C943E000C943E000C943E0058
:100030000C943E000C943E000C943E000C943E0048
:100040000C943E000C943E000C943E000C943E0038
:100050000C943E000C943E000C943E000C943E0028
:100060000C943E000C943E0011241FBECFEFD8E04C
:10007000DEBFCDBF0E9440000C9460000C940000D5
:10008000259A85B185B9389A409820E291E03FEFF2
:1000900043EC89E0315040408040E1F700C000006F
:1000A00085B1822785B988B1892788B93FEF43ECAC
:1000B00089E0315040408040E1F700C00000E7CFC8
:0400C000F894FFCFE2
:00000001FF
