:100000000C9434000C9451000C9451000C94510049
:100010000C9451000C9451000C9451000C9451001C
:100020000C9451000C9451000C9451000C9451000C
:100030000C9451000C948D000C9451000C945100C0
:100040000C94BE000C9451000C9451000C9451007F
:100050000C9451000C9451000C9451000C945100DC
:100060000C9451000C94510011241FBECFEFD8E026
:10007000DEBFCDBF11E0A0E0B1E0E0E0F3E002C000
:1000800005900D92AE30B107D9F721E0AEE0B1E0B6
:1000900001C01D92A031B207E1F70E9478000C94D4
:1000A0007E010C940000FC01408121E030E002C0A0
:1000B000220F331F6A95E2F7242B20830895FC0159
:1000C000908121E030E002C0220F331F6A95E2F7F1
:1000D0002095292320830895FC01408121E030E010
:1000E00002C0220F331F6A95E2F7242B2083089564
:1000F0000E94EF0063E087E00E94FF00E1E8F0E08B
:1001000080818B7F8083808183608083EFE6F0E055
:100110008081816080837894FFCF1F920F920FB609
:100120000F9211242F933F934F935F936F937F937D
:100130008F939F93AF93BF93EF93FF9380910F01A2
:100140008F5F8A3018F480930F0102C010920F0164
:1001500060E080910F010E94FF00FF91EF91BF913D
:10016000AF919F918F917F916F915F914F913F914F
:100170002F910F900FBE0F901F9018951F920F9206
:100180000FB60F9211242F933F934F935F936F936A
:100190007F938F939F93AF93BF93EF93FF93809140
:1001A0000E018F5F863018F480930E0102C010920A
:1001B0000E0160E080910E010E94FF00FF91EF911F
:1001C000BF91AF919F918F917F916F915F914F916F
:1001D0003F912F910F900FBE0F901F90189564E0E4
:1001E0008AE290E00E94530067E08AE290E00E9479
:1001F000530060E084E290E00E94530008951F9352
:10020000CF93DF93E82FF0E0EC5FFE4F1081E62FF5
:10021000F0E0E050FF4FD08164E08BE290E00E947C
:100220005F0067E08BE290E00E945F0060E085E2A3
:1002300090E00E945F008FE99FE00197F1F700C016
:100240000000C8E010FD06C060E085E290E00E947A
:100250005F0005C060E085E290E00E946C008FE9DD
:100260009FE00197F1F700C0000067E08BE290E0AB
:100270000E946C008FE99FE00197F1F700C0000039
:1002800067E08BE290E00E945F001695C150D1F6C6
:10029000C8E0D0FD06C060E085E290E00E945F000B
:1002A00005C060E085E290E00E946C008FE99FE06D
:1002B0000197F1F700C0000067E08BE290E00E9438
:1002C0006C008FE99FE00197F1F700C0000067E044
:1002D0008BE290E00E945F00D695C150D1F664E0B9
:1002E0008BE290E00E946C008FE99FE00197F1F7AC
:1002F00000C00000DF91CF911F910895F894FFCFC7
:0E03000010204080039F250D9949411F0109DF
:00000001FF
