:100000000C9434000C9449000C9449000C94490061
:100010000C9449000C9449000C9449000C9449003C
:100020000C9449000C9449000C9449000C9449002C
:100030000C9449000C9477000C9449000C944900EE
:100040000C9449000C9449000C9449000C9449000C
:100050000C9449000C9449000C9449000C944900FC
:100060000C9449000C94490011241FBECFEFD8E036
:10007000DEBFCDBF11E0A0E0B1E0E4E1F2E002C0FC
:1000800005900D92A030B107D9F70E9470000C9432
:1000900008010C940000FC01408121E030E002C026
:1000A000220F331F6A95E2F7242B20830895FC0169
:1000B000908121E030E002C0220F331F6A95E2F701
:1000C0002095292320830895FC01408121E030E020
:1000D00002C0220F331F6A95E2F7242B2083089574
:1000E0000E94810060E18DE00E949100FFCF1F928D
:1000F0000F920FB60F9211240F900FBE0F901F900A
:10010000189564E08AE290E00E944B0067E08AE282
:1001100090E00E944B0060E084E290E00E944B007F
:1001200008951F93CF93DF93182FD62F64E08BE2AF
:1001300090E00E94570067E08BE290E00E94570039
:1001400060E085E290E00E9457008FE99FE0019710
:10015000F1F700C00000C8E010FD06C060E085E2D5
:1001600090E00E94570005C060E085E290E00E94A8
:1001700064008FE99FE00197F1F700C0000067E09D
:100180008BE290E00E9464008FE99FE00197F1F715
:1001900000C0000067E08BE290E00E9457001695D7
:1001A000C150D1F6C8E0D0FD06C060E085E290E025
:1001B0000E94570005C060E085E290E00E94640064
:1001C0008FE99FE00197F1F700C0000067E08BE244
:1001D00090E00E9464008FE99FE00197F1F700C072
:1001E000000067E08BE290E00E945700D695C15076
:1001F000D1F664E08BE290E00E9464008FE99FE01A
:100200000197F1F700C00000DF91CF911F91089591
:04021000F894FFCF90
:00000001FF
